:020000040800F2
:10000000483701206102000847290008AB23000897
:1000100045290008490A000895340008000000003E
:10002000000000000000000000000000A101000826
:10003000690C000800000000FD01000809300008FC
:100040007B0200087B0200087B0200087B0200089C
:100050007B0200087B0200087B0200087B0200088C
:100060007B0200087B0200087B0200087B0200087C
:100070007B0200087B0200087B0200087B0200086C
:100080007B0200087B0200087B0200087B0200085C
:100090007B0200087B0200087B0200087B0200084C
:1000A0007B0200087B0200087B0200087B0200083C
:1000B0007B0200087B0200087B0200087B0200082C
:1000C0007B0200087B0200087B0200087B0200081C
:1000D0007B0200087B020008753400087B020008E0
:1000E0007B0200087B0200087B0200087B020008FC
:1000F0007B0200087B0200087B0200087B020008EC
:100100007B0200087B0200087B0200087B020008DB
:100110007B0200087B0200087B020008C530000853
:100120007B0200087B0200087B0200087B020008BB
:100130007B0200087B0200087B0200087B020008AB
:100140007B0200087B0200087B0200087B0200089B
:100150007B0200087B0200087B0200087B0200088B
:100160007B0200087B0200087B0200087B0200087B
:100170007B0200087B0200087B02000800000000F0
:100180007B0200087B020008DFF810D000F082FB41
:10019000004800471D3E0008AFF3008048370120AB
:1001A0002C4B19680868B0E8F04F80F30988BFF35A
:1001B0006F8F4FF0000080F311887047000000003F
:1001C00008480068006880F308884FF0000080F35A
:1001D000148862B661B6BFF34F8FBFF36F8F00DF35
:1001E00000BF00BF08ED00E0DFF80C00016841F43B
:1001F00070010160704700BF88ED00E0EFF30980F7
:10020000BFF36F8F134B1A681EF0100F08BF20ED5D
:10021000108A20E9F04F106009B44FF0500080F3CD
:100220001188BFF34F8FBFF36F8F04F0AFFC4FF017
:10023000000080F3118809BC19680868B0E8F04F25
:100240001EF0100F08BFB0EC108A80F30988BFF3CE
:100250006F8F704714000020EFF305807047000097
:100260000648804706480047FEE7FEE7FEE7FEE750
:10027000FEE7FEE7FEE7FEE7FEE7FEE7B530000833
:10028000890100082DE9F05F0546002092469B4653
:1002900088460646814640241BE02846414647469C
:1002A000224600F060FA53465A46C01A914110D3D4
:1002B00011461846224600F047FA2D1A67EB01084E
:1002C0004F4622460120002100F03EFA17EB0009BC
:1002D0004E41201EA4F10104DFDC484631462A4687
:1002E0004346BDE8F09F40EA01039B0703D009E0C5
:1002F00008C9121F08C0042AFAD203E011F8013B12
:1003000000F8013B521EF9D27047D2B201E000F86A
:10031000012B491EFBD270470022F6E710B51346A9
:100320000A4604461946FFF7F0FF204610BD10B5F7
:10033000002200E0521C835C8C5CA34201D1002BA4
:10034000F8D1D8B2E1B2401A10BD000070B50F4D1F
:1003500000B92868002412E00A4602E09E4203D059
:10036000521C1378002BF9D1DAB2224305D02BB1FD
:1003700024B1002100F8011B04E00446401C06786B
:10038000002EE9D12860204670BD0000B00000209A
:100390002DE9FE4F804681EA0300C00F0C46009015
:1003A00021F0004123F00045B8EB0200A94105D23D
:1003B0004046214690461C460B46024623F000402C
:1003C000104347D0270DC7F30A00C3F30A51029028
:1003D000401A019040286BDAC3F3130040F4801BED
:1003E0000098924620B10023D2EB030A63EB0B0B7B
:1003F00001985946C0F14002504600F0A5F9064662
:100400000D4650465946019A00F0BDF910EB080020
:100410006141002487EA115284EAE7731A4340D00D
:10042000009A62B3019A012A4FEA075215DC001BB9
:1004300061EB02014FF0004202EA0752CDE90042AF
:10044000001C41F5801132462B4600F0BDF903B087
:10045000BDE8F08F40462146F9E7001B61EB020141
:10046000001C41F5801300185B412018A2F500170D
:1004700047EB030140EAD570B6196D4111E06D08F4
:100480004FEA360645EAC0754FEA0752001B61EB9A
:100490000201001C41F5801149084FEA30000019A3
:1004A000514132462B4603B0BDE8F04F00F07DB914
:1004B0000098012240000023D0EB020263EBE073BE
:1004C000009821464FEAE074B8EB000061EB0401AC
:1004D000E9E783F000435BE781F0004158E72DE94D
:1004E000FE4F81EA030404F0004421F0004100942F
:1004F0004FF0000B23F0004350EA01045ED052EAB3
:1005000003045BD0C3F30A54C1F30A552C44A4F28C
:10051000F3340194A0FB0254C1F3130141F48011A0
:10052000C3F3130343F4801301FB024400FB034EA7
:10053000840A970A44EA815447EA8357A4FB076870
:1005400002958D0A05FB07854FEA932C04FB0C549A
:100550002705029D4FEA065847EA1637B5EB08050E
:100560006EEB070C870E920E47EA811742EA831260
:10057000A7FB0201B6EB0B0164EB00042B0D43EA71
:100580000C335E1844EB1C50DA465146E7FB02017F
:10059000C5F313044FEA0B3343EA14534FEA043212
:1005A000019C43EA0603A4F10C040294009CCDE9EB
:1005B00000B400F009F903B0BDE8F08F0020014657
:1005C000F9E72DE9F04D81EA030404F0004B21F036
:1005D000004514464FF0000A23F0004150EA05029E
:1005E00020D054EA01021DD0C5F30A570246C5F3D4
:1005F0001303C1F31300C1F30A5640F4801543F40A
:100600008013A7EB0608101BD64608F2FD3873EBE3
:10061000050002D308F1010801E092185B41B8F12E
:10062000000F03DA00200146BDE8F08D00204FF4F2
:100630008011064684460EE0171B73EB050705D3B1
:10064000121B63EB050306434CEA010C49084FEA11
:10065000300092185B4150EA0107EDD152EA0300E5
:1006600012D082EA040083EA0501084305D0101B7A
:10067000AB4106D20122002306E000224FF00043E6
:1006800002E06FF0010253101AEB06004CEB085128
:1006900010EB0A0041EB0B01BDE8F04D00F085B80E
:1006A0000EB540F2334102910021CDE900110A4616
:1006B0000B4600F089F803B000BDC1F30A5210B533
:1006C000C1F3130140F2FF3341F480119A4201DA81
:1006D000002010BD40F233439A42A2F2334203DCC1
:1006E000524200F040F810BD904010BD30B5041EDD
:1006F00071F1000404DB4FF00044404264EB01015F
:10070000141E73F1000405DB1C464FF000435242F7
:1007100063EB0403994208BF904230BD30B50B46ED
:10072000014600202022012409E021FA02F59D4221
:1007300005D303FA02F5491B04FA02F52844151EF5
:10074000A2F10102F1DC30BD202A04DB203A00FADC
:1007500002F1002070479140C2F1200320FA03F318
:10076000194390407047202A04DB203A21FA02F016
:100770000021704721FA02F3D040C2F120029140DB
:10078000084319467047202A06DBCB17203A41FA66
:1007900002F043EAE07306E041FA02F3D040C2F10E
:1007A0002002914008431946704710B5141E73F19A
:1007B000000408DA401C41F1000192185B411A4321
:1007C00001D120F0010010BD2DE9F04D92469B466D
:1007D00011B1B1FA81F202E0B0FA80F22032904613
:1007E000FFF7B2FF04460F4640EA0A0041EA0B0158
:1007F00053465A46084313D0114653EA010019D014
:10080000C8F140025046FFF7AEFF05460E4650467F
:1008100059464246FFF798FF084305D0012004E0FF
:1008200020463946BDE8F08D0020054346EAE076D3
:100830002C4337430A986305E40AA0EB0800002222
:10084000FD0A44EA47540A3002D500200146E9E790
:10085000010510196941DDE9084500196941BDE844
:10086000F04DA2E7C1F30A52C1F3130140F2FF3386
:1008700041F480119A4202DA00200146704740F2AA
:1008800033439A42A2F2334202DC5242FFF76BBF7B
:10089000FFF75ABF064C074D06E0E06840F0010341
:1008A00094E8070098471034AC42F6D3FFF770FC89
:1008B000546300087463000810B5012003F082FA45
:1008C000072003F07FFA112003F07CFABDE8104006
:1008D000C82000F051BA00000B4C4FF0FF3704F174
:1008E000180600BF03F04EFA05463946206804F0AA
:1008F000F1FB002335801A461946206804F09EFA61
:10090000642003F0D5FFEDE79000002000F004F82C
:100910000A2003F0CDFFF9E72DE9FC412E4C2078A9
:10092000012856D12DA12E48FFF710FD2DA1FFF76C
:10093000FEFC00284BD129A1FFF708FD064627A1A0
:100940000020FFF703FD284D07464FF0FF312868D0
:1009500004F0C0FB254800231A46016800918088F6
:10096000ADF804001946286804F068FA20A1304662
:10097000FFF7DDFC20B920A13846FFF7D8FC28B1ED
:100980001EA13046FFF7D3FC40B10CE09DF80320D8
:100990009DF802101BA002F07FFD18E016A138465A
:1009A000FFF7C5FC28B11CA13046FFF7C0FC20B101
:1009B0000DE09DF804101AA007E00FA13846FFF7DC
:1009C000B6FC20B9BDF800101AA002F065FD0020A9
:1009D0002070BDE8FC810000000000202C00000019
:1009E000540100206B65790090000020A8000020D1
:1009F000CEC2B6C80000000075700000CAAAB6C812
:100A000000000000B5B1C7B0CEC2B6C8A3BA256415
:100A10002E2564A1E60D0A00B9E2C7BF0000000060
:100A2000B5B1C7B0CAAAB6C8A3BA2564252552482D
:100A30000D0A0000B5B1C7B0B9E2C7BFA3BA2564BB
:100A40004C580D0A00000000FEE7000070B50024BD
:100A5000204600F04DF8134D04E0641CE4B2012080
:100A600003F0BEF91021284600F090FA10B1642C72
:100A7000F3D30FE0642C0DD2002404E0641CE4B234
:100A8000012003F0ADF91021284600F07FFA18B1DB
:100A9000642C04D3012070BD642CEFD3FAE700204E
:100AA00070BD0000000802400F4810B5016886B014
:100AB00041F00401016000680C4C00F00400059056
:100AC000102000900120019003906946204600F01C
:100AD00065F901221021204600F05DFA00F07EF851
:100AE000FFF7B4FF06B010BD3038024000080240E6
:100AF00000B585B0102108B101200390CDE90010A8
:100B00006946024800F04AF905B000BD00080240FD
:100B100070B50024134D04E0641CE4B2012003F01E
:100B20005FF91021284600F031FA08B1642CF3D3A4
:100B3000002404E0641CE4B2012003F051F9102108
:100B4000284600F023FA08B9642CF3D3282003F0D8
:100B500047F91021284600F019FA002800D001209A
:100B600070BD00000008024070B500200446400639
:100B7000050EFFF7CDFF641C2843E4B2082CF6D322
:100B800070BD00002DE9FC4115468846064600F080
:100B900025F8FFF75BFF10B10120BDE8FC810024C0
:100BA0004FEA0D07FFF7E0FF3855641CE4B2052C4F
:100BB000F8D39DF800209DF801009DF8021013184D
:100BC0009DF803000C1823449DF80440A34203D170
:100BD0002A70317088F800000020DEE710B501208F
:100BE000FFF786FF094C00221021204600F0D3F9C0
:100BF000142000F0C1F801221021204600F0CBF9AA
:100C0000BDE810400D2003F0EBB8000000080240E2
:100C10000EB50020134D8DF800008DF804008DF8FE
:100C20000800461E05F118044FF4FA6702AA01A94C
:100C30006846FFF7A7FF3146286804F04BFA9DF895
:100C40000000A0709DF80400E0709DF808000023EB
:100C500020711A461946286804F0F0F8384603F067
:100C600027FEE3E790000020704772B6FEE7000021
:100C70001CB5FFF719FFFFF71FFE01F00DFF4FF442
:100C80007A7000F079F8012004F03EF8074900235B
:100C900080220860091D0120CDE9000104A1074858
:100CA00004F00AFBBDE81C4003F030BF90000020B8
:100CB00073746172745F7461736B0000652F000858
:100CC0002DE9F0410446876D00F06AF9064694F874
:100CD00035000025022806D08020606584F8345055
:100CE0000120BDE8F0812068016821F01601016053
:100CF0002068416921F080014161206C08B9A06C35
:100D000020B12068016821F00801016020680168B5
:100D100021F0010101600CE000F042F9801B052880
:100D200007D920206065032084F8350084F834500A
:100D3000D7E720680068C007EED194F85C103F2028
:100D40008840B860012084F8350084F834500020D1
:100D5000C7E790F83510022903D0802141650120B2
:100D60007047052180F835100068016821F0010105
:100D7000016000207047000070B5044600F010F9D3
:100D80000546601C02D004480078044400F008F9CD
:100D9000401BA042FAD370BD040000202DE9F84F9B
:100DA000DFF8BCA10022012503264FF00F090AF14C
:100DB000040BAAF1040E00BF0B6805FA02F42340ED
:100DC000A34270D10F7907F00307012F01D0022F42
:100DD00016D187684FEA420806FA08FC27EA0C0792
:100DE000D1F80CC00CFA08FC4CEA070CC0F808C09B
:100DF0004768A7430C79C4F3001494403C43446013
:100E00000C79E443A4070AD0C4684FEA420C06FAFE
:100E10000CF7BC438F6807FA0CF72743C7600C79BF
:100E200004F00304022C12D1D40800EB840CDCF88B
:100E300020405707FF0E09FA07F824EA0804D1F802
:100E4000108008FA07F848EA0408CCF82080046803
:100E50004FEA420C06FA0CF7BC430F7907F0030780
:100E600007FA0CF7274307604C6814F4403F70D032
:100E70003C4C276847F480472760246822F003072A
:100E800004F480440094384C07EB040CDCF8084868
:100E900097074FEA177809FA08F7BC43334FB8426F
:100EA00002D1002724E054E0314FB84201D101279C
:100EB0001EE0304FB84201D1022719E02E4FB84250
:100EC00001D1032714E02D4FB84201D104270FE0D0
:100ED0002B4FB84201D105270AE02A4FB84201D171
:100EE000062705E0284FB84201D1072700E0082770
:100EF00007FA08F72743CCF80878DAF80040574695
:100F0000D1F804C09C435FEACC2C00D51C433C6064
:100F1000DBF800405F46D1F804C09C435FEA8C2CAC
:100F200000D51C433C60DEF800407746D1F804C091
:100F30009C435FEA8C3C00D51C433C60084F083F53
:100F40003C68D1F804C09C435FEACC3C00D51C430C
:100F50003C60521C102AFFF42FAFBDE8F88F000050
:100F6000083C01404438024000300140000002408B
:100F70000004024000080240000C02400010024041
:100F80000014024000180240001C024000690840A2
:100F900000D0012070470AB1816170470904FBE766
:100FA00001488068704700000400002070B504000C
:100FB00025D094F83D00002520B984F83C50204607
:100FC00000F046FA242084F83D002068016821F0F2
:100FD000010101602068016841F40041016020685E
:100FE000016821F40041016000F0E6FB4D4A6168B0
:100FF000914201D84C4900E04C49884201D201207D
:1010000070BD4B492368B0FBF1F15E6826F03F06E6
:101010000E435E606368934206D94FF4967359435A
:101020004FF47A73B1FBF3F12368491C1E6A26F072
:101030003F06314319626168914210D84900401E51
:10104000B0FBF1F2521CC2F30B02042A01D20420BD
:1010500022E0B0FBF1F0401CC0F30B001CE0A268E2
:10106000F2B301EBC10303EB0116431EB3FBF6F32E
:101070005B1C43F480431B0549D092B301EBC102D2
:1010800002EB0111401EB0FBF1F0401CC0F30B005D
:1010900040F4804040F400402168CA694CF6FF7378
:1010A0009A431043C861D4E90710014320680268DD
:1010B00022F0C00211430160D4E90301014320681A
:1010C000826848F2FF339A4311438160D4E90501F5
:1010D00008432168CA6822F0FF021043C86001E09B
:1010E0000EE016E02068016841F00101016025640E
:1010F000202084F83D00256384F83E50002070BD18
:1011000001EB4106431EB3FBF6F35B1CB3E7012082
:10111000C2E701EB4101401EB0FBF1F0401CC0F3FF
:101120000B00B7E7A086010080841E0000093D0087
:1011300040420F002DE9F84F1F4690468A4604466C
:10114000DDF82890FFF72CFF054694F83D00202895
:1011500071D11923012270492046009501F02EFA21
:101160000028F5D194F83C00012864D0012084F8CF
:101170003C0020680168C90703D1016841F0010102
:1011800001602068016821F400610160222084F878
:101190003D00102084F83E0000262664C4F8248018
:1011A0006785608D20855D48E0622B464A46514642
:1011B000204601F013F9002876D1208D584F68B1F0
:1011C000012814D002282068016816D041F48061FB
:1011D000016020684169806900908EE02068416963
:1011E00081690091016841F40071016085E0206827
:1011F000016821F480610160F0E721F48061016001
:101200002068016841F40061E2E7032846D801281C
:101210000AD0022810D04B460022394620460095BD
:1012200001F0CCF9C8BB25E02A464946204601F02A
:101230006BFA90BB54E06CE04B46002239462046E6
:10124000009501F0BBF940BB2068016841F40071D2
:10125000016020680069616A0870606A401C606211
:10126000218D491E2185618D491E6185216809698D
:10127000017039E02068016821F480610160206814
:101280000069616A0870606A401C6062208D401EBF
:101290002085608D401E6085CEE705E02A464946E0
:1012A000204601F031FA10B10120BDE8F88F206826
:1012B0000069616A0870606A401C6062208D401E8F
:1012C00081B22185608D401E608520684269D243CD
:1012D000520712D4032903D1016821F4806101600F
:1012E00020680069616A0870606A401C6062208D35
:1012F000401E2085608D401E6085208D002884D191
:10130000202084F83D0084F83E6084F83C60002092
:10131000CBE70220C9E70000020010000000FFFF39
:10132000040001002DE9F84F1F4690468A46044606
:10133000DDF82890FFF734FE054694F83D0020289C
:101340007FD11923012240492046009501F036F94A
:10135000002876D194F83C00012872D0012084F84E
:101360003C0020680168C90703D1016841F0010110
:1013700001602068016821F400610160212084F887
:101380003D00102084F83E0000262664C4F8248026
:101390006785608D20852D48E0622B464A46514680
:1013A000204601F091F890B9206841698069009069
:1013B00036E02A464946204601F0DEF950B1206C5D
:1013C000042804D12068016841F400710160012003
:1013D000BDE8F88F606A216800780861606A401C87
:1013E0006062618D491E6185218D491E89B221850A
:1013F00022685369DB435B070BD451B1007810615D
:10140000606A401C6062608D401E6085208D401EB9
:1014100020852A464946204601F0A4F80028CED16E
:10142000208D0028C5D154F83D0B016841F40071AE
:101430000160202004F81E09E67766770020C7E7E0
:10144000FFE70220C4E70000020010000000FFFFD9
:1014500010B586B0044614216846FEF75DFF1349B7
:101460002068884220D112480021026842F002021E
:101470000260006800F002000590C0200090122079
:10148000CDE9010103200390042004906946094836
:10149000FFF784FC06481030016841F40011016038
:1014A000006800F40010059006B010BD0054004024
:1014B000303802400004024002488168027811443A
:1014C00081607047040000200B4810B5016841F4AA
:1014D00000710160016841F480610160016841F4BC
:1014E00080710160032000F09BF8012000F006F8F5
:1014F00000F050F8002010BD003C024030B5054619
:101500001F4887B00024016841F020010160006895
:1015100006A900F02000009001A800F02DF9049821
:10152000A8B100F049F940001649174AB0FBF1F1A3
:101530001648491E026040F2E732C0E90324C0E9C0
:101540000114846100F08AFB040003D015E000F070
:1015500033F9E9E70D4800F0FFFB04000DD1372017
:1015600000F030F8102D07D200222946372000F075
:1015700037F80748056000E0012407B0204630BD79
:101580004038024040420F0000140040D0010020CB
:10159000080000200A4808B5016841F48041016054
:1015A000006800F4804000900548001F016841F089
:1015B00080510160006800F08050009008BD00007C
:1015C00044380240002809DB00F01F02012191404D
:1015D0004009800000F1E020C0F8001170470000D1
:1015E000F0B40E4B1B680C46C3F30223C3F107058E
:1015F000042D00D90425191D072901D2002300E07C
:10160000DB1E012606FA05F1491E214099409E4045
:10161000761E16403143F0BC01F04EBF0CED00E0E9
:10162000064900F0070208684FF6FF03184040EA39
:101630000220034A10430860704700000CED00E0F0
:101640000000FA052DE9F0470E46050065D0DFF8E9
:101650001481D8F80000F7B200F00700B04207D2BA
:1016600088F80070D8F8000000F00700B04254D1AC
:1016700028683D4C810712D5400703D5206840F407
:10168000E05020602878000703D5206840F46040CF
:1016900020602068A96820F0F000084320602878C6
:1016A000C0072DD0304968680839012812D00228B7
:1016B00013D0032811D00968890700292DDA216881
:1016C00021F0030101432160FFF76AFC814641F2EA
:1016D000883A0EE009688903EFE709688901ECE7B9
:1016E000FFF75EFCA0EB0901514502D90320BDE8DC
:1016F000F0872068696800F00C00B0EB810FEFD133
:10170000D8F80010404601F00701B14207D9077030
:10171000006800F00700B04201D00120E7E7287818
:10172000400705D52068E96820F4E05008432060B0
:101730002878000706D52068296920F4604040EA2F
:10174000C100206000F058F82168084AC1F3031175
:10175000515CC8400649086006480068FFF7CEFEA5
:101760000020C4E7003C024008380240305800081E
:1017700010000020080000200F2202600C4A1368AD
:1017800003F003034360136803F0F00383601368FE
:1017900003F4E053C36012684FF4E05303EAD2024B
:1017A00002610448006800F007000860704700000C
:1017B00008380240003C02400448054900680968B6
:1017C000044AC1F38221515CC840704710000020D8
:1017D0000838024040580008044805490068096874
:1017E000044AC1F34231515CC840704710000020E8
:1017F0000838024040580008154810B5006810F03D
:101800000C02144813D01449042A0FD0082A0ED110
:101810000F4C241F2268236802F03F025B0207D5A9
:101820002068C0F38810A0FB010106E0084610BD47
:101830002168C1F38811A1FB00010023FEF722FDFE
:101840002168C1F30141491C4900B0FBF1F010BD12
:10185000083802400024F40040787D012DE9F84F5B
:1018600004006ED02078DFF84C93C007A9F104057E
:101870004AD009F104000168C1F38101012908D0AF
:101880000068C0F3810002280AD1D9F800004002A4
:1018900006D52868800337D560680028E1D033E09A
:1018A0006068B0F5803F10D0B0F5A02F286810D048
:1018B00020F480302860286820F480202860606848
:1018C000A8B1FFF76DFB06460DE0286840F48030B4
:1018D000F4E740F480202860F7E700BFFFF760FBE3
:1018E000801B642873D828688003F7D50CE0FFF7C5
:1018F00057FB064605E000BFFFF752FB801B64283C
:10190000F0D828688003F7D42078DFF8AC8280070D
:101910004FF0000A3ED5A748001D016811F00C0FDA
:1019200008D00068C0F3810002280BD1D9F800006C
:10193000400207D42868800716D5E068012800D146
:1019400012E033E1E068B8B10120C8F80000FFF709
:1019500027FB064605E000BFFFF722FB801B02289D
:10196000C0D828688007F7D52868216920F0F800DA
:1019700040EAC10028600DE0C8F800A0FFF710FBA6
:10198000064604E0FFF70CFB801B02281FD82868DE
:101990008007F7D42078000722D5864F87486169F1
:1019A000703771B101210160FFF7FAFA064604E0D1
:1019B000FFF7F6FA801B022809D838688007F7D5A8
:1019C0000EE0C0F800A0FFF7EBFA064605E082E063
:1019D000FFF7E6FA801B02287DD838688007F7D425
:1019E0002078400768D5DFF8CCB100270BF13C0B1D
:1019F000DBF80000C0000BD4DBF8001041F0805190
:101A0000CBF80010DBF80000012700F080500090B8
:101A10006B4E3068C00510D4306840F48070306080
:101A2000FFF7BEFA009005E0FFF7BAFA0099401AF6
:101A3000022850D83068C005F6D55E4EA0686C36D6
:101A400001280FD00528306810D020F00100306048
:101A5000306820F004003060A068B8B1FFF7A0FA49
:101A600000900FE0306840F00100F4E740F004001F
:101A70003060F7E7FFF794FA0099411A41F2883095
:101A8000814266D830688007F4D50EE0FFF788FA07
:101A9000009007E0FFF784FA0099411A41F288307C
:101AA000814256D830688007F4D42FB1DBF800109B
:101AB00021F08051CBF80010A069C8B33D49091D41
:101AC0000968C1F3810102294AD00228504607D093
:101AD000C8F8600000E03CE0FFF762FA04463BE033
:101AE0004746C8F86000FFF75BFA064605E000BF0E
:101AF000FFF756FA801B02282BD828688001F7D4FC
:101B0000D4E907010843A16A2E4A490802EB0141C2
:101B1000626A41EA8211084394F82C1040EA01619C
:101B2000C9F8001001203866FFF73AFA044606E0CB
:101B30003EE000BFFFF734FA001B022809D82868EE
:101B40008001F7D534E000BFFFF72AFA001B022816
:101B500002D90320BDE8F88F28688001F4D427E07B
:101B60000128F7D0D9F80000E26900F48001914221
:101B70001CD1226A00F03F01914217D147F6C07193
:101B8000626A0140B1EB821F10D1A26A4FF0FF33AD
:101B900000F4403103EB5202B1EB024F06D194F84E
:101BA0002C1000F07060B0EB016F01D00120D1E784
:101BB0000020CFE70438024000004742800E474231
:101BC000007000400000FFFF7047704770B590F84C
:101BD0003C20012A32D0012480F83C40022280F8C7
:101BE0003D2003685A689D6822F070060A683243F7
:101BF0005A60134B02689A4214D0B2F1804F11D050
:101C0000104B9A420ED0104B9A420BD00F4B9A4277
:101C100008D00F4B9A4205D00E4B9A4202D00E4B81
:101C20009A4204D1496825F080031943916080F8F5
:101C30003D40002180F83C10084670BD022070BD78
:101C4000000001400004004000080040000C00407B
:101C500000040140004001400018004010B504009D
:101C600003D094F83D0010B107E0012010BD002022
:101C700084F83C00204600F01FF8022084F83D0064
:101C8000211D206801F024FA012084F8460084F820
:101C90003E0084F83F0084F8400084F8410084F856
:101CA000420084F8430084F8440084F8450084F836
:101CB0003D00002010BD000008B5006806498842BC
:101CC00008D10648016841F010010160006800F089
:101CD0001000009008BD0000001000404038024095
:101CE00090F83D10012901D001207047022180F8B1
:101CF0003D1000681149884214D0B0F1804F11D0D6
:101D00000F4988420ED00F4988420BD00E498842B5
:101D100008D00E49884205D00D49884202D00D49AD
:101D2000884204D1816801F00701062903D00168C7
:101D300041F00101016000207047000000000140F7
:101D40000004004000080040000C00400004014076
:101D5000004001400018004090F83D10012901D0DA
:101D600001207047022180F83D100168CA6842F0E6
:101D70000102CA6000681149884214D0B0F1804F56
:101D800011D00F4988420ED00E4988420BD00E491F
:101D9000884208D00D49884205D00D49884202D0BA
:101DA0000C49884204D1816801F00701062903D05B
:101DB000016841F00101016000207047000001400E
:101DC0000004004000080040000C004000040140F6
:101DD000004001400018004070472DE9F0410446E2
:101DE0000068C66805694FF00007A90713D5B10759
:101DF00011D5F91E016101202077206880698007D4
:101E0000204602D0FFF7E8FF04E000F07EF820460D
:101E100000F07CF82777680716D5700714D521687D
:101E20006FF004000861022020772068806910F4B8
:101E3000407F204602D0FFF7CFFF04E000F065F8B6
:101E4000204600F063F82777280715D5300713D50B
:101E500021686FF008000861042020772068C069BD
:101E60008007204602D0FFF7B7FF04E000F04DF8EE
:101E7000204600F04BF82777E80616D5F00614D573
:101E800021686FF010000861082020772068C06981
:101E900010F4407F204602D0FFF79EFF04E000F0E0
:101EA00034F8204600F032F82777E80708D0F0072A
:101EB00006D021686FF001000861204600F028F884
:101EC000280608D5300606D521686FF08000086125
:101ED0002046FFF779FE680608D5700606D521680A
:101EE0006FF040000861204600F01CF8A8060AD5F3
:101EF000B00608D521686FF0200008612046BDE8D3
:101F0000F041FFF762BEBDE8F08170477047000006
:101F100000680349884201D1FFF7CEBA704700003C
:101F2000001400407047704770470000F8B5016822
:101F300004460868CA684B6910F00F0F4FF000059F
:101F400059D003F0010602F49077374365D0C107FA
:101F500005D0D10503D5616C41F0010161644107F1
:101F600005D5D90703D0616C41F002016164810796
:101F700005D5D90703D0616C41F004016164010704
:101F800007D502F02001314303D0616C41F0080114
:101F90006164616C00293AD0800604D5900602D5B0
:101FA000204601F02BF920684069616CC0F3801075
:101FB000090700D460B3204601F0F9F820684069B1
:101FC000400621D52068143050E8001F21F0400160
:101FD00040E80012002AF5D1E06BA8B17249016512
:101FE000E06BFEF7B6FE002811D0E06B016D01B08A
:101FF000BDE8F040084783060FD593060DD520466F
:10200000BDE8F84001F0FAB82046FFF78DFFF8BDB3
:102010002046FFF789FF6564F8BD266B2023012E5B
:102020007ED1C6067CD5D6067AD508684868009069
:1020300048694FF0020640064DD5E26B10684068D3
:102040004FF480770004000C3AD0A18D814237D93B
:10205000E085D069B8422DD020680C3050E8001FD0
:1020600021F4807140E80012002AF5D12068143074
:1020700050E8001F21F0010140E80012002AF5D1CC
:102080002068143050E8001F21F0400140E80012A1
:10209000002AF5D184F84230256320680C3050E8DE
:1020A000001F21F0100140E80012002AF5D1E06B7A
:1020B000FEF706FE6663A08DE18D401A81B206E050
:1020C000A18D8142A8D1D069B842A5D166632046CE
:1020D000FFF729FFF8BDA08DE18D401A81B2E08D98
:1020E0000028F7D00029F5D020680C3050E8002FE8
:1020F00022F4907240E80027002FF5D120681430B8
:1021000050E8002F22F0010240E80027002FF5D10F
:1021100084F84230256320680C3050E8002F00E03E
:1021200006E022F0100240E80023002BF3D1CDE7B7
:1021300005062BD5150629D594F841002128C9D1CB
:10214000A068B0F5805F01D12069B0B1206A411C60
:102150002162216800784860E08C401E0004000C79
:10216000E084B7D12068C16821F08001C160206897
:10217000C16841F04001C160F8BD206A0088C0F329
:1021800008004860206A801C2062E5E74006F3D51D
:102190005006F1D5CA68204622F04002CA6084F891
:1021A000413000F001F9F8BDA131000870B504001C
:1021B00004D094F84100002510B106E0012070BD64
:1021C00084F84050204600F023F8242084F8410091
:1021D0002068C16821F40051C160204601F070F808
:1021E0002068016921F4904101612068416921F072
:1021F0002A0141612068C16841F40051C1606564F1
:10220000202084F8410084F842006563002070BDFE
:1022100010B586B0044614216846FEF77DF81749CC
:102220002068884228D116480021026842F4003212
:102230000260006800F40030059011481038026810
:1022400042F001020260006800F0010005900C20DD
:1022500000900220CDE901010320039007200490A3
:1022600069460848FEF79AFD002205212620FFF75F
:10227000B7F92620FFF7A6F906B010BD00440040CC
:10228000403802400000024090F84230202B01D03C
:102290000220704721B11AB10023036301F096B800
:1022A0000120704730B400681449884224D1144892
:1022B000002103464278DB78012412B1012A07D0BD
:1022C00013E05B2B11D102787AB9447081700CE075
:1022D0000B4A0C4D5D2B92780AD0AB54521CD2B2F3
:1022E0008270312A01D38170417030BC01F0C8B8CE
:1022F0004170A9540470F8E730BC704700440040B6
:1023000000000020540100202DE9F843044690F815
:102310004100984616460D46202802D00220BDE80E
:10232000F88385B17EB100206064212084F84100EB
:10233000FEF736FEA6848146E684A0682027B0F525
:10234000805F02D003E00120E9E7206910B12E464A
:1023500000250EE000260CE08021204601F051F817
:10236000A8B9C6B116F8010B21684860E08C401E80
:10237000E084E08C4B464FF00002CDF8008000284E
:10238000EAD14FF04001204601F03BF840B184F81B
:1023900041700320C3E735F8020BC0F30800E3E700
:1023A00084F841700020BAE77047FEE701684A6987
:1023B000D24352050FD46FF480624A61002140F885
:1023C000301F202242738173026942F004020261CD
:1023D0000173012070470020704700002DE9F84F7D
:1023E0000446C06A1E4693460D4621680A6842F4B8
:1023F00080620A60082807D0012805D010F5803FC8
:1024000002D0206B112804D12068016841F480714A
:1024100001604FF001195B460022494620460096B4
:1024200000F0CCF84FF4007840B120680068C00597
:1024300001D5C4F840800320BDE8F88F2069DFF89B
:1024400084A0B0F5804F0FD00620216800EAD51790
:1024500047F0F000086133465A460AF1060120466B
:1024600000F0F4F858BB03E0E8B240F001001CE0D3
:102470002168E8B2086133465A465146204600F0CA
:10248000E5F8E0B92068416981690091016841F48B
:10249000807101605B46002249462046009600F0AC
:1024A0008DF80028C1D147F0F1002168086133465A
:1024B0005A465146204600F0C9F80028BCD00120F9
:1024C000BAE7000002000100F8B50446C06A1E46E3
:1024D0000D461746082807D0012805D010F5803F83
:1024E00002D0206B122804D12068016841F4807169
:1024F0000160134600224FF001112046009600F0C3
:102500005DF840B120680068C00502D54FF4007046
:1025100020640320F8BD2069B0F5804F0ED006205E
:10252000216800EAD51040F0F000086133463A46D1
:102530000B49204600F08AF878B902E005F0FE0069
:1025400000E0E8B221680861054933463A46891F30
:10255000204600F07BF80028DCD00120F8BD000008
:102560000800010070B516460D4604461EE02046E0
:10257000FFF71CFF08B1012070BD681C16D0FEF7E4
:102580000FFD801BA84200D885B920684069C04370
:1025900040070BD5002044F8300F20216173A07351
:1025A000216941F0200121612073E4E7206840693E
:1025B000C0434007DBD4002070BD00002DE9F04788
:1025C000984617460D460446C1F30746DDF82090AD
:1025D0002AE000BFB8F1FF3F26D0FEF7E1FCA0EBF8
:1025E0000901414502D8B8F1000F1DD12068012E24
:1025F00016D0806925EA00000004000C12D00020EB
:10260000B84211D1002044F8300F20216173A0732B
:10261000216941F02001216120730120BDE8F0878C
:102620004069E7E70120EBE72068012E0AD08069C6
:1026300025EA00000004000C06D00020B842C9D0F2
:102640000020EBE74069F3E70120F7E72DE9F047C9
:10265000984616460D4604464FF000094FF0200AF2
:10266000C1F3074723E020684069C043400515D403
:102670002068016841F40071016021686FF4806096
:102680004861C4F8309084F83DA084F83E90216CF5
:1026900041F00401216484F83C9021E0701C06D0D4
:1026A000FEF77EFCA0EB0800B04203D816B1012F64
:1026B0001FD021E02068012F15D0806925EA000095
:1026C0000004000C18D000BF44F8309F84F80DA01F
:1026D00084F80E90216941F02001216184F80C906A
:1026E0000120BDE8F087406925EA00000004000CE5
:1026F000EAD12068406901E02068806925EA00008D
:102700000004000CAFD1ECE72DE9F0410025904624
:102710000E460446202728E04069C043C0060CD47A
:1027200054F8301B6FF01000486144F81059677777
:10273000A577206A2062257714E0FEF731FCA0EB34
:102740000800B04200D886B920684069C0434006FE
:102750000BD544F8305F6773A573206940F0200003
:10276000206125730120BDE8F08120684169C943DB
:102770004906D1D40020F6E770B516460D4604464A
:102780001EE02046FFF712FE08B1012070BD681C54
:1027900016D0FEF705FC801BA84200D885B920683A
:1027A0004069C04300060BD5002044F8300F2021BB
:1027B0006173A073216941F0200121612073E4E776
:1027C00020684069C0430006DBD4002070BD0000D3
:1027D00070B586B014216846FDF79EFD264800249A
:1027E000016841F004010160016801F004010591F4
:1027F000016841F020010160016801F020010591AC
:10280000016841F080010160016801F080010591DB
:10281000016841F001010160016801F001010591C9
:10282000016841F0020101600068144E00F00200EE
:102830004FF4E0750590002229463046FEF7ABFBC9
:102840004FF40050CDE9000469460D480294FEF7AC
:10285000A5FA00950125CDE9025469463046019557
:10286000FEF79CFACDE90054694606480294FEF74B
:1028700095FA06B070BD00003038024000140240E6
:1028800000080240000002400D4810B50B490160ED
:102890000C49416000214FF480428160C0E903127D
:1028A00041618161C1610162FEF780FB002803D0B4
:1028B000BDE81040FEF7D9B910BD0000005400403B
:1028C000B8000020A08601001CB500240E4800942A
:1028D0000C49019401605321C0E901144FF6FF71C6
:1028E0008461C160FFF7BAF908B1FEF7BEF9009440
:1028F000694605480194FFF769F9002801D0FEF701
:10290000B4F91CBD001000400C0100200C4810B5AB
:102910000A4901604FF416514160002181600C2288
:10292000C160C0E904128161C161FFF73FFC00286A
:1029300003D0BDE81040FEF798B910BD0044004038
:1029400088010020FEE7FEE710B50021074C0A468B
:10295000002004EBC1131A54401CC0B28028FAD3E3
:10296000491CC9B20829F3D310BD00001802002089
:10297000F0B50B4424E0044685181DE07F2C19D8DF
:10298000002917DB3F2915DCCE1701EB56764FEAFD
:10299000E60C0D4F26F0070607EBCC172744A1EBFA
:1029A000060E97F800C0012606FA0EF62CEA060C71
:1029B00087F800C0641C24B2A542DFDC491C09B2C0
:1029C0008B42D8DCF0BD00001802002000B587B0B3
:1029D00000214FF47A720020401C9042FCD3491C25
:1029E0009142F8D30E480021026842F010020260C2
:1029F000006800F0100005904FF420400090012086
:102A000003901120CDE9010169460648FEF7C6F999
:102A1000012000F061FA012000F06CFA07B000BD5F
:102A2000303802400010024070B500240646802570
:102A300025FA04F0304000D0012000F05BFA0120BC
:102A400000F04AFA002000F047FA641CE4B2082CB7
:102A5000EED3012000F040FABDE87040002000F005
:102A60003BBA10B5012000F045FA012000F034FA1D
:102A7000002000F03FFABDE81040002000F02CBA22
:102A800010B5002000F036FA012000F025FABDE86C
:102A90001040012000F02EBA10B5FFF797FFAE20CE
:102AA00000F036FAD52000F033FA802000F030FA3A
:102AB000A82000F02DFA3F2000F02AFAD32000F0E1
:102AC00027FA002000F024FA402000F021FAA1208B
:102AD00000F01EFAC82000F01BFADA2000F018FA05
:102AE000122000F015FA812000F012FACF2000F039
:102AF0000FFAD92000F00CFAF12000F009FADB20DF
:102B000000F006FA302000F003FAA42000F000FAEA
:102B1000A62000F0FDF98D2000F0FAF9142000F055
:102B2000F7F9AF2000F0F4F9FFF70EFFBDE8104011
:102B300000F0BEB90246012000E05043491EFCD21D
:102B4000704710B5891CCCB240F0B00000F0E0F93D
:102B5000102040EA141000F0DBF904F00F00BDE88B
:102B6000104000F0D5B9000008B5082B0DD0062B99
:102B70000AD10A4B02EB420203EB4202C03A009236
:102B80000823062200F054F808BD054B03EB02129F
:102B9000A2F50072102300920822F3E7385E0008C5
:102BA000485800082DE9FC5F002490468B46824679
:102BB0002546DFF87490019430E001A90855641CA3
:102BC000E4B2022C28D30024264606E0384601A9A8
:102BD000FDF7ADFB68B1761CF6B2C6EBC60000EBA4
:102BE000800101EB0900074610A1FDF7A0FB0028BA
:102BF000ECD1C6EBC60000EB800101EB0900C01C64
:102C00000090681C41080AEB01101038102300B234
:102C10001A46594600F00CF86D1CEDB218F8050084
:102C20000028CAD1BDE8FC9F7260000800000000C7
:102C30002DE9F04F1F4616460C4682460025FFF749
:102C400097FE7F1EF81707EB50700121DFF89CB04C
:102C500001EBE00745E000203FE000BF0AEB000386
:102C60007F2B38D8E11704EB5171CA1021F007010E
:102C7000611A002C03DA521E083112B209B202EBBB
:102C80000509B9F1070F10D80BEBC91E1EF8032078
:102C900015FB06F8DDF824C0844418F80CC00CFAC3
:102CA00001FC42EA0C020EF8032009F10102072A96
:102CB00011D80BEBC91202EB030898F8803015FB12
:102CC00006FC099AC1F1080102441CF80220CA401E
:102CD000134388F88030401CC0B2B042BED36D1C94
:102CE000EDB2AF42B7DCBDE8F08F00001802002063
:102CF0002DE9F04700241D4690468A4681460A2762
:102D0000089E14E0291B0A20491EFFF713FFB8FB99
:102D1000F0F0B0FBF7F107FB110204FB069000B2E4
:102D2000334651463032FFF71FFF641CE4B2AC4219
:102D3000E8D3BDE8F0872DE9F0411E4615468846E8
:102D40000746002408E014FB067000B233464146F3
:102D5000FFF70AFF641CE4B22A5D002AF3D1BDE844
:102D6000F08100000EB542A200212020FFF71AFFDB
:102D700042A210210020FFF715FF08232E22102168
:102D80005B20FFF7F1FE40A220210020FFF70AFFA1
:102D900040A230210020FFF705FF41A21021702042
:102DA000FFF700FF0823252220215D20FFF7DCFE2E
:102DB00008233CA220217020FFF7BDFF08233AA280
:102DC00030216620FFF7B7FF00F072F80824374F74
:102DD0004FF0FF380A254146386802F07BF9B869A0
:102DE0000190B88B0023ADF808001A4619463868E0
:102DF00002F024F89DF806600123B6FBF5F21021DD
:102E00004B200094FFF774FFB6FBF5F005FB106252
:102E10000123102153200094FFF76AFF00949DF8CE
:102E20000720012310215F20FFF762FF9DF8086053
:102E30000123B6FBF5F220214B200094FFF758FF49
:102E4000B6FBF5F005FB106201232021532000940E
:102E5000FFF74EFF0094BDF80420032330214B20E0
:102E6000FFF746FF00F024F8322001F021FDB2E721
:102E7000BBB7BEB3CFB5CDB300000000B5B1C7B08E
:102E8000CEC2B6C8A3BA0000B5B1C7B0CAAAB6C808
:102E9000A3BA0000B5B1C7B0B9E2C7BFA3BA00007A
:102EA000A1E60000524800006C75780090000020F8
:102EB00070B5084D002400212046FFF742FE05EBC7
:102EC000C410802100F035F8641CE4B2082CF2D361
:102ED00070BD00001802002010B502464FF40051EA
:102EE0000348FEF758F8BDE8104000F091BF00001D
:102EF0000010024010B502464FF400410348FEF7AF
:102F00004AF8BDE8104000F083BF00000010024006
:102F100010B50446FFF7A5FD7820FFF785FD0020DA
:102F2000FFF782FD2046FFF77FFDBDE81040FFF769
:102F3000A7BD70B50D460646FFF793FD7820FFF755
:102F400073FD4020FFF770FD002404E0305DFFF7C3
:102F50006BFD641CE4B2AC42F8D3BDE87040FFF7EF
:102F60008FBD00001CB516480124CDE900400023A8
:102F7000220214A1164802F09FF9114800230C38D0
:102F8000CDE90040802213A1154802F095F90C48C4
:102F900000230838CDE90040802212A1144802F035
:102FA0008BF907480023001FCDE90040802211A1C2
:102FB000144802F081F9BDE81C40002001F09EBCDD
:102FC000A40000204F4C45445F5461736B00000027
:102FD000652D00084248313735305F5461736B000E
:102FE000D908000844485431315F5461736B0000C4
:102FF000110C0008424C5545544F4F54485F5461E2
:10300000736B00000D09000810B502F083F9012868
:1030100003D0BDE8104001F061BE10BD30B593B0E3
:1030200030216846FDF778F914210CA8FDF774F9F2
:103030001E480025016841F080510160006800F0E1
:10304000805011901A48016841F480410160006885
:10305000022400F4804011900120009000040190AF
:103060008001CDE90640192008904FF4A870CDE901
:10307000090404200B906846FEF7F0FB08B172B615
:10308000FEE70CA90F2081E831004FF4A0500F900B
:103090004FF48050109005210CA8FEF7D3FA0028B9
:1030A00001D072B6FEE713B030BD000040380240D8
:1030B000007000400248016841F4700101607047EF
:1030C00088ED00E00148FEF788BE0000D001002036
:1030D000F0B50268274B284D284E294F294C4FF058
:1030E000804C984209D0604507D0A84205D0B04234
:1030F00003D0B84201D0A04204D122F0700E4A6839
:1031000042EA0E0298421BD0604519D0A84217D05F
:10311000B04215D0B84213D0A04211D01A4DA842E7
:103120000ED01A4DA8420BD0194DA84208D0194D07
:10313000A84205D0184DA84202D0184DA84203D18C
:1031400022F44075CA682A434D6922F080022A435E
:103150008D68C5620D688562984201D0A04201D198
:1031600009690163016841F00401016001214161C5
:103170000260F0BD00000140000400400008004073
:10318000000C0040000401400040014000440140A8
:103190000048014000180040001C00400020004092
:1031A00010B5806B0021C185FEF7BEFE10BD016821
:1031B0000C3151E8002F22F4907241E80023002BDB
:1031C000F5D10168143151E8002F22F0010241E8E5
:1031D0000023002BF5D1016B012909D101680C31C5
:1031E00051E8002F22F0100241E80023002BF5D116
:1031F000202180F8421000210163704708B590F843
:103200004210222901D0022008BD82684FF4805369
:103210009A4201D1016921B1816A9A421BD04AB117
:103220000AE00268816A5268C2F308020A80816A71
:10323000891C08E0026972B10268526802F07F02DC
:103240000A70816A491C8162C18D491E0904090CFA
:10325000C18503D01BE002685268F1E70168CA68C3
:1032600022F02002CA600168CA6822F48072CA6033
:1032700001684A6922F001024A61202180F8421067
:1032800000214163026B012A03D0FFF70BF80020F5
:1032900008BD016301680C3151E8002F22F01002D3
:1032A00041E80023002BF5D101680A68D20602D557
:1032B0000A6849680091818DFEF735FEE7E7000056
:1032C00070B5044600680169E26821F44051114379
:1032D00001612169A068E2690843616911430843FB
:1032E0002168CA6849F20C639A430243CA602068A5
:1032F0004169A26921F4407111434161314920685B
:10330000884202D03049884202D1FEF765FA01E0D6
:10331000FEF752FAE2690023192164253226B2F53C
:10332000004F626828D0A0FB0101930F9200FCF7C8
:10333000A9FF0146B0FBF5F06FF01802504301EB16
:10334000800006EB0010B0FBF5F000F0F002B1FBDE
:10335000F5F002EB0012B1FBF5F06FF018035843E3
:1033600001EB800006EB0010B0FBF5F000F00F0061
:1033700021681044886070BDA0FB010192185B4178
:10338000FCF780FF0146B0FBF5F00201B1FBF5F060
:103390006FF01803584301EB800006EBC000B0FB50
:1033A000F5F000F0F80002EB4002B1FBF5F05843F5
:1033B00001EB800006EBC000B0FBF5F000F0070069
:1033C000D6E70000001001400014014081628285B0
:1033D000C28500214164222180F84210016921B197
:1033E0000168CA6842F48072CA6001684A6942F0A2
:1033F00001024A610068C16841F02001C1600020FB
:1034000070472DE9F843984617460D460446089E36
:1034100024E0701C22D0FDF7C3FDA0EB0800B042F1
:103420001AD8CEB12068C168490717D5802D15D0AC
:10343000402D13D00168C94309070FD40168002546
:10344000406800902046FFF7B2FE0820606484F8D0
:1034500040500120BDE8F8830320FBE720680068A6
:1034600035EA000004D00020B842D2D00020F1E7B5
:103470000120F9E70148FEF759BD0000880100204E
:10348000012202490248FEF7FFBE000003000020AF
:1034900088010020FEE700000FB4054B10B503A91A
:1034A000044A029800F0EAF810BC5DF814FB000032
:1034B000F93D0008B40000200907090E002804DBCC
:1034C00000F1E02080F80014704700F00F0000F1D8
:1034D000E02080F8141D704702E008C8121F08C1E0
:1034E000002AFAD170477047002001E001C1121F85
:1034F000002AFBD1704700002DE9FF5F82B0002158
:10350000DDE90430020DDDF840B0034318D044F685
:103510001050A2F2FF3242431514119801281FD017
:10352000A5EB0B00401C5FEA000A4FF000064E4F6F
:10353000DFF83891B046504615D5CAF1000413E0C3
:10354000119801244AA3012801D16FEA0B010298C6
:10355000119AC0E90031C0E9024206B0BDE8F09F0F
:10356000CBF10000DFE704460021404A491842EB56
:103570000450CDE9001012E0E00707D032463B4688
:1035800040464946FCF7ABFF8046894632463B46FB
:1035900010461946FCF7A3FF06460F466410002CA0
:1035A000EAD1DDE90401DDE90023BAF1000F06DA12
:1035B000FCF795FF42464B46FCF791FF05E0FDF70F
:1035C00000F842464B46FCF7FCFF04460E4600223C
:1035D000284BFDF78BF803D84FF0FF30014607E08A
:1035E0000022254B20463146FCF7D2FEFDF73AF982
:1035F000102409E0002C0ADB0A220023FCF742FE1B
:10360000039B30321A55641E50EA0102F2D1641C49
:10361000039AC4F111031444119A012A03D0012220
:1036200008430DD10AE0084304D000204FF0110BED
:10363000119072E7A3EB0B056D1E0DE05B4504DDF9
:103640004FF0000205F1010504E003DA4FF000023B
:10365000A5F10105002AECD002981199C0E90231C8
:10366000C0E9004579E70000000014400000F03F89
:10367000300000000000F0430000E03F2DE9FF4F64
:1036800095B09A46884606460025EEE1252877D172
:1036900000242746F94A0121039400E0044316F868
:1036A000013F203B01FA03F01042F7D130782A287D
:1036B00011D06FF02F033078A0F13002092A16D80C
:1036C000039A44F0020402EB820203EB420210442C
:1036D000761C0390EFE758F8042B0392002A03DAD4
:1036E000504244F40054039044F00204761C3078B5
:1036F0002E2816D116F8010F44F004042A280DD004
:103700006FF02F023078A0F13003092B09D807EBB6
:10371000870302EB4303C718761CF3E758F8047BD2
:10372000761C30786C280FD006DC4C2817D068281F
:103730000DD06A2814D104E0742810D07A280FD153
:103740000DE044F400140AE044F4801401E044F471
:1037500040147278824202D104F58014761C761CE3
:10376000307866280BD013DC582877D009DC002885
:1037700075D04528F6D04628F4D047281AD193E1D1
:1037800018E0632835D0642879D0652812D18BE100
:10379000702873D008DC6728F1D069286FD06E28B4
:1037A0000DD06F2806D1ACE073282CD0752874D0CA
:1037B000782853D05246179990476D1C54E1C4F3B2
:1037C0000250022809D003280DD0D8F80010042890
:1037D0000DD00D6008F1040846E1D8F80010EA1792
:1037E000C1E90052F6E7D8F800100D80F2E70D703D
:1037F000F0E718F8041B8DF8001000208DF8010088
:10380000EB46012003E058F804BB4FF0FF3061079E
:103810004FF0000102D40DE009F101018946B942DF
:103820000FDA8145F8DB1BF809100029F4D108E014
:1038300009F1010189468142FADB1BF809100029D0
:10384000F6D103985346A0EB090721463846179A4C
:1038500000F080FA284400EB090507E044E008E1A5
:103860000DE01BF8010B524617999047B9F1010979
:10387000F7D2534621463846179AF2E039E00A213A
:10388000C4F302524FF0000B0091022A06D058F800
:10389000040BC117032A09D00AE023E008F107004E
:1038A00020F00702F2E80201904605E000B2C117DD
:1038B000042A01D140B2C117002906DA0A460021C4
:1038C000404261EB02012D2202E0220504D52B22A9
:1038D0008DF80420012203E0E20701D02022F7E75F
:1038E000914657E00A2100E010214FF0000B0091B3
:1038F0000BE010214FF0000B44F004040827009166
:1039000003E008204FF0000B0090C4F30252022A9B
:1039100005D058F8040B0021032A08D008E008F16C
:10392000070020F00702F2E80201904603E080B2AF
:10393000042A00D1C0B24FF0000922072AD53278FC
:10394000702A07D0DDF800C08CF0100C5CEA0B0C7C
:1039500005D00EE040228DF80420012208E050EA54
:10396000010306D030238DF804308DF805200222A3
:103970009146009B83F0080353EA0B030AD150EAF7
:10398000010201D1620705D530228DF804204FF0E5
:1039900001097F1E3278582A04D039A20C920CAA51
:1039A00002920BE03BA2F9E75B46009AFCF76AFC47
:1039B0000C9B9B5C029A521E0292137050EA010209
:1039C000F2D1029804A9081A00F1200B600702D571
:1039D00024F4803400E001275F4502DDA7EB0B00F3
:1039E00000E0002000EB0B01009003984944401ACE
:1039F0000390E00306D453462146179A039800F03B
:103A0000A9F90544002706E001A85246C05D1799B0
:103A100090476D1C7F1C4F45F6DBE0030CD55346E9
:103A20002146179A039800F095F9054404E03020E8
:103A30005246179990476D1C0099481E0090002926
:103A4000F5DC08E00298029952460078491C029180
:103A5000179990476D1CBBF10001ABF1010BF1DC34
:103A60005BE100F065F90544761C307800287FF4AE
:103A70000DAE19B02846BDE8F08F000009280100FE
:103A800030313233343536373839616263646566D4
:103A90000000000030313233343536373839414296
:103AA0004344454600000000600700D4062708F1A3
:103AB000070020F00700F0E80223804603F0004CE6
:103AC0005FEA0C0001D097A009E0200501D596A07F
:103AD00005E0E00701D095A001E0AFF24C001390A3
:103AE000307823F0004365280CD006DC452809D047
:103AF00046281DD047287FD13BE0662818D067288C
:103B00007AD136E00021112F01DB112000E0781C72
:103B1000CDE9000104A90CA8FFF7EEFCDDE90D01D9
:103B20000C9A4FF0000B07F10109109200914EE042
:103B30004FF000400097CDE9011004A90CA8FFF751
:103B4000DBFCDDE90D020C9B0F994FF0000B914659
:103B50001093009211B9791C00EB0109B7EB090031
:103B600003D4C0F1FF3B07F10109A9EB0700019065
:103B700042E0012F00DA01270021112F01DD112081
:103B800000E03846CDE9000104A90CA8FFF7B4FC19
:103B9000DDE90D010C9A00914FF0000BB94610922F
:103BA00021070FD4009A4A4503DA914601E0A9F1B2
:103BB0000109B9F1010F05DD109AA9F10101515C6C
:103BC0003029F4D0B84202DA10F1040F03DA0121EF
:103BD000CDE9011010E0002803DC8344A9EB0001CB
:103BE00002E0411C494500DD8946A0EB0B00401C6A
:103BF00001904FF000400290200705D401984845FD
:103C000002DB4FF0FF30019000208DF84B0002984E
:103C10000DF14B07B0F1004F25D002200C902B2066
:103C20000D90029800280CDA404202902D200D9051
:103C300007E00A210298FCF771FD3031029007F885
:103C4000011D0C99481E0C900029F2DC02980028F6
:103C5000EFD1791E0D980870307800F0200040F008
:103C6000450007F8020D11A8C01BC01D0290139853
:103C7000007800B1012000EB0901019801EBE0712F
:103C8000029801440398401A401E0390E00306D4B2
:103C900053462146179A039800F05CF805441398A0
:103CA000007818B15246179990476D1CE00323D550
:103CB00053462146179A039800F04CF805441BE040
:103CC000BBF1000F07DB0098584504DD10981799E9
:103CD00010F80B0001E017993020524690470198E8
:103CE0000BF1010B401E05F10105019004D12E20BE
:103CF0005246179990476D1CB9F10001A9F10109CD
:103D0000DEDC05E017F8010B5246179990476D1C51
:103D10000299481E02900029F4DC53462146179A66
:103D200003989EE62D0000002B00000020000000FC
:103D30002DE9F041044600251E461746880404D4A8
:103D400005E039462020B0476D1C641EF9D5284691
:103D5000BDE8F0812DE9F041044600251E4690465D
:103D6000C80301D5302700E02027880404D505E0EA
:103D700041463846B0476D1C641EF9D52846BDE85B
:103D8000F08100001CB54FF47A700090022301AA64
:103D900047210948FDF7CEF9BDF8040040BAFCF709
:103DA0007FFC9FED061B53EC112BFCF70AFCFCF784
:103DB00084FC80B21CBD0000B800002033333333D4
:103DC0003333F33F01B582B04FF47A700090012392
:103DD00002AA46210148FDF7A5FA0EBDB800002051
:103DE00004490A68516A89B2536A5B1A9BB28342DA
:103DF000FAD370470C01002013B54FF47A730122F7
:103E000069460248FEF780FA00981CBD8801002030
:103E10000020401CC0B21428FBD37047FDF754FBB0
:103E2000FFF7FCF8FEF7D4FCFEF74EFDFEF72CFD85
:103E3000FEF76CFD0B4C012240212046FDF7ABF84C
:103E4000012280212046FDF7A6F80122110220461A
:103E5000FDF7A1F80448FDF743FFFFF711FBFCF75E
:103E600007FFFEE7001402400C0100202DE9F0419D
:103E70001E4C0F460546E6682068001D00F010FC49
:103E800038B9206890F82C100120884021698143BE
:103E90002161681C15D1A7B1154922684868906056
:103EA00023688268DA6022688368121D5A6022687B
:103EB000121D8260206841610868401C0860BDE8EE
:103EC000F08120683544B5424560216805D2E06B39
:103ED000BDE8F041091D00F004BCA06B091D00F015
:103EE00000FCA06A8542EAD2A562E8E7140000203F
:103EF0000C0700202DE9F041054600F017FC364C78
:103F0000A068401CA0602068344F10B1606940B3C5
:103F10002DE02560A068012829D1002606EB860047
:103F200007EB800000F0CFFB761C052EF6D32B4864
:103F3000643000F0C8FB2948783000F0C4FB274803
:103F40008C3000F0C0FB2548A03000F0BCFB2348BB
:103F5000B43000F0B8FB21486430A0631430E06353
:103F600005E02068E96AC06A884200D82560606A76
:103F7000401C60622864E96A01202269884010437D
:103F8000206101EB810007EB80004068A860816838
:103F9000E9608268291D51608160E86A00EB800059
:103FA00007EB8001696157F82010491C47F8201081
:103FB00000F0DCFB606900280CD02068E96AC06A68
:103FC000884207D206494FF080500860BFF34F8FF8
:103FD000BFF36F8FBDE8F081140000205806002069
:103FE00004ED00E010B500F0A1FB0E4C2068A0B974
:103FF0000D4800F068FB0C48143000F064FB0A48E0
:10400000E0601430206100220C210A2000F08EFEB6
:10401000206010B105A100F001FCBDE8104000F0E7
:10402000A5BB00005400002020070020546D7251F1
:104030000000000030B4026C0B46002A0BD0C168AF
:104040001144C1608468A14201D30168C16030BCE1
:104050001846FCF748B930BC70472DE9F041856B34
:10406000174604460026026C82B1C7B1E068FCF72F
:104070003AF9E168206C091AE1602268914202D2A3
:10408000A168081AE060022F16D017E02068A8B9CE
:10409000A06801F0EFF906460020A0600EE060681D
:1040A000FCF721F9216C606808446060A1688842CF
:1040B00004D32068606001E005B16D1E6D1CA5632E
:1040C0003046BDE8F08110B50446006B00F062FB9D
:1040D0002046BDE8104000F05DBB00000E484FF4E4
:1040E0009631420706D0C01D0B4920F00700411A47
:1040F000C1F59631094A00230144C2E90003083999
:10410000143A21F0070111604B600B600B1AC0E9F3
:104110000013936053607047480700208800002018
:10412000144E154CA6F1A0074FF08058DFF84C90C4
:1041300012E000BF00F0FAFAF068C568281D00F030
:10414000AFFAA068401EA0606068401E606000F08A
:104150000DFB2846FFF7B7FF60680028EAD13868F2
:104160000128F9D9C9F80080BFF34F8FBFF36F8FD3
:10417000F2E70000F80600201400002004ED00E043
:104180002DE9F0470D46DDE9098417468246910086
:104190009946089EA522206BFCF7B7F86FF0030143
:1041A000206B01EB8701084420F00707780707D050
:1041B000502080F31188BFF34F8FBFF36F8FFEE75E
:1041C00065B100202218295C82F83410295C11B1F5
:1041D000401C0A28F6D3002084F83D00052E07D3A2
:1041E000502080F31188BFF34F8FBFF36F8FFEE72E
:1041F000E662201DA66400F071FA04F1180000F0D8
:104200006DFA2461C6F105006462A0614A46514618
:10421000384600F02FFA2060B8F1000F01D0C8F83E
:104220000040BDE8F087000030B5114900E01146BC
:104230000A688242FBD34B685C18844203D1406811
:1042400018444860084643681C18944209D1084C39
:10425000143C2468A24209D052681A4442600A6899
:1042600012680260814200D0086030BD0460F9E746
:104270008800002070B5002441600B4D0061914220
:1042800006D8D11A8269914206D2011D286907E039
:104290009A4203D2994201D3012403E0011DE86848
:1042A00000F01FFA204670BD5400002010B50446EF
:1042B00000F03CFAA06B28B15FF0000400F056FA61
:1042C000204610BD0124F9E770B506460D480D469D
:1042D000C068C068C468201D00F0E2F994F82800A6
:1042E000410705D52A463146204600F0B5F803E0DF
:1042F00000F0FE0084F828002046216ABDE87040E6
:1043000008470000540000207FB5374E63E0009856
:10431000002860DB029C606910B1201D00F0C0F92C
:1043200003A800F0BBF8054600980A2853D2DFE83E
:1043300000F0520505282E460505282E94F8280081
:104340002A4640F0010084F828000199A069019BE9
:1043500001442046FFF78EFF40B394F82800410740
:1043600007D50198A1692A460144204600F074F857
:1043700003E000F0FE0084F82800216A2046884708
:1043800029E014F8280F00F0FE00207023E094F8D4
:10439000280040F0010084F828000198A06130B1A5
:1043A00041192B461A462046FFF764FF13E05020C0
:1043B00080F31188BFF34F8FBFF36F8FFEE794F840
:1043C0002800810703D4204600F0E4F903E000F060
:1043D000FE0084F8280000226946306800F0DEFD07
:1043E000002894D17FBD000054000020F8B50D4690
:1043F000064600F0C3FB684600F050F804460098FB
:1044000010B101F059F9F8BD1148ADB10169096861
:10441000D9B10025311B2A46006800F027FA01F0C7
:104420004BF90028EFD10B494FF080500860BFF3E3
:104430004F8FBFF36F8FF8BDA642EBD801F03CF968
:1044400021463046FFF740FFF8BD0125E2E70000B6
:104450005400002004ED00E070B516460C460546F9
:1044600004E0A869296A044428468847A8692346C5
:10447000011932462846FFF7FDFE0028F1D170BD34
:104480000548816B096821B1816BC968096881623F
:1044900070474FF0FF31FAE7140000202DE9F0419A
:1044A000064600F045FF0E4C0546A068854214D232
:1044B0004FF0FF3704E0C06839460068FFF704FF9B
:1044C000E06801680029F6D12169C4E903100120E0
:1044D00030602846A560BDE8F0810020F8E70000C4
:1044E0005400002008484068401C4FF0500080F302
:1044F000118804D0BFF34F8FBFF36F8FFEE7BFF378
:104500004F8FBFF36F8FFEE768000020074CE06815
:10451000016841B1C0680021D0F80000FFF766FFD4
:10452000FFF7F2FEF3E701210020F7E75400002037
:104530002DE9F041044600F0F9F894F9455004F1F2
:10454000240609E0606A48B1304601F047F808B136
:1045500000F034FA6D1E6DB2002DF3DC4FF0FF3623
:1045600084F8456000F002F900F0E0F894F9445056
:1045700004F1100709E0206948B1384601F02EF82F
:1045800008B100F01BFA6D1E6DB2002DF3DC84F84B
:104590004460BDE8F04100F0E9B8000070B50446A1
:1045A000002600F0EBFA2C4D286808B9FFF796FDBD
:1045B0007CB304F00700C0F11000C1438C423DD829
:1045C000211800293ADD6868814237D82248143022
:1045D0000246146801E02046144662688A4202D20C
:1045E0002268002AF7D12A68944227D006682268F8
:1045F000026060680836421A102A0FD96018430713
:1046000008D0502080F31188BFF34F8FBFF36F8F16
:10461000FEE713E042606160FFF706FE61686868CC
:10462000401A6860AA68904200D2A86041F0004039
:10463000606000202060E868401CE86001F03CF801
:10464000700707D0502080F31188BFF34F8FBFF35E
:104650006F8FFEE7304670BD740000200449086883
:1046600018B10868C26C521CC26408687047000028
:104670001400002010B5031F4FF080741C601B1F36
:1046800021F001011960191F044B0B6014390A60F5
:10469000091F6FF0020244380A6010BDE5440008AB
:1046A000D0E9013201699A60D0E901235A604A6871
:1046B000824201D182684A60002202610868401E7D
:1046C00008600868704700F108014FF0FF32C0E948
:1046D0000112C16001610021016070470021016188
:1046E000704730B50B685A1C02D000F1080202E096
:1046F000026904E02246546825689D42FAD953684D
:104700004B6099608A60516008610168491C0160D2
:1047100030BD42684A6093688B60936859609160CD
:1047200008610168491C016070470000502080F357
:104730001188BFF34F8FBFF36F8F0A494868401C41
:10474000486001280CD10848006810F0FF0F07D01E
:10475000502080F31188BFF34F8FBFF36F8FFEE7B8
:10476000704700006800002004ED00E00849486838
:1047700028B1401E486001D180F311887047502055
:1047800080F31188BFF34F8FBFF36F8FFEE70000F8
:104790006800002070B500282AD0A0F108046068E5
:1047A000002807DB502080F31188BFF34F8FBFF341
:1047B0006F8FFEE7216839B1502080F31188BFF375
:1047C0004F8FBFF36F8FFEE720F00040606000F076
:1047D000D5F9084D60686968084468602046FFF7AD
:1047E00023FD2869401C2861BDE8704000F064BFCB
:1047F00070BD0000740000204FF0E0200021016136
:10480000816105494FF47A720968B1FBF2F1491EE2
:1048100041610721016170471000002070B500223E
:1048200060B100291ED0104C002300BF04EBC3056B
:104830006E6886420AD104EBC3020FE0502080F379
:104840001188BFF34F8FBFF36F8FFEE71AB954F88B
:10485000336006B92A465B1C082BE7D3002A01D037
:10486000C2E9001070BD00001806002070B51546A2
:104870000E460446FFF75AFF94F944100020491CE5
:1048800001D184F8440094F94510491C01D184F801
:104890004500FFF76BFFA06B28B92A46314604F1AB
:1048A000240000F0A9F82046BDE87040FFF740BEA4
:1048B00010B5020014D00F48406B38B1502080F37F
:1048C0001188BFF34F8FBFF36F8FFEE700F056F9EB
:1048D00000211046FFF7CAFA00F0EEFE002807D1CB
:1048E00005494FF080500860BFF34F8FBFF36F8FC3
:1048F00010BD00001400002004ED00E070B5054676
:10490000FFF714FF264C05B92568281DFFF7C8FEE0
:1049100058B9E86A234A00EB800152F8211021B906
:1049200001218140206988432061A86A18B105F1FE
:104930001800FFF7B5FE606A401C6062206885427F
:1049400008D11848291DA030FFF7E3FE6068401C1D
:10495000606004E0A068401EA060FFF791FDFFF7D3
:1049600005FF2068854202D02846FFF7ACFB60694E
:10497000002814D02068854211D1606B38B15020D6
:1049800080F31188BFF34F8FBFF36F8FFEE70649A7
:104990004FF080500860BFF34F8FBFF36F8F70BD33
:1049A000140000205806002004ED00E002490A6AC5
:1049B0000260C9684160704714000020014901206D
:1049C000C86170471400002010B50C4650B1094969
:1049D00009681831FFF785FE2046BDE81040012127
:1049E000FFF744BA502080F31188BFF34F8FBFF315
:1049F0006F8FFEE714000020F0B40C46D0B11149CF
:104A000043680D68EB619D680E6835620D689E68AD
:104A1000183575600D6818359D60096888620168F1
:104A2000491C01600AB14FF0FF342046F0BC11462A
:104A3000FFF71CBA502080F31188BFF34F8FBFF3EC
:104A40006F8FFEE71400002070B5040058D0E26CB0
:104A5000A2B1A06C884200D30146E06A88424FD0E0
:104A6000012A4DD1274D2A6894420FD1502080F35E
:104A70001188BFF34F8FBFF36F8FFEE7502080F395
:104A80001188BFF34F8FBFF36F8FFEE7E162A2691A
:104A9000002A02DBC1F10501A1611B4E00EB800081
:104AA000616906EB800081422AD1201DFFF7F8FDE5
:104AB000012130B994F82C002A6901FA00F08243F0
:104AC0002A61E06A2A6981401143296100EB800074
:104AD00006EB80004068A0608168E1608268211D6B
:104AE00051608160E06A00EB800006EB800060614D
:104AF000E06A00EB800056F82010491C46F82010B0
:104B000070BD000014000020580600207CB5174836
:104B10000025CDE900502B46822215A1164800F051
:104B2000CBFB124C2C3C012803D100F05BFE01288A
:104B300002D0401C11D00EE0502080F31188BFF34A
:104B40004F8FBFF36F8F4FF0FF30A0620120606185
:104B5000E56000F049F8206B7CBD502080F311889F
:104B6000BFF34F8FBFF36F8FFEE7000040000020C0
:104B700049444C4500000000214100080248416BB7
:104B8000491C416370470000140000201448416B29
:104B900011B10121C16170470021C1610169B1FA00
:104BA00081F1C1F11F0101EB81020E4951F8223060
:104BB0006BB101EB820101F108034A6852684A6057
:104BC0009A4201D152684A60D16801607047502012
:104BD00080F31188BFF34F8FBFF36F8FFEE70000A4
:104BE00014000020580600201CB537480168374AD9
:104BF000914207D1502080F31188BFF34F8FBFF34C
:104C00006F8FFEE700683149491E884207D1502066
:104C100080F31188BFF34F8FBFF36F8FFEE72C49EE
:104C200008780190FF20087008788DF800009DF842
:104C300000009DF8002000F0F000904207D05020C6
:104C400080F31188BFF34F8FBFF36F8FFEE79DF89E
:104C50000000204C00F0500020700720A06005E00C
:104C60009DF8002052008DF80020401E9DF8002085
:104C70001206F5D4A060032807D0502080F31188D5
:104C8000BFF34F8FBFF36F8FFEE74FF44070A0600C
:104C9000019808700C482030016841F470010160EF
:104CA000016841F070410160FFF7A6FD00206060DF
:104CB000FBF79AFA0848016841F040410160FBF7B0
:104CC0007FFA00201CBD000000ED00E071C20F4122
:104CD00000E400E06800002034EF00E010B5502050
:104CE00080F31188BFF34F8FBFF36F8F00F026FB67
:104CF00018B104494FF080500860002080F31188FB
:104D000010BD000004ED00E010B5024600210120B6
:104D100000F00CF8041E07D00021816001600B46F2
:104D20000A46C16000F08AF8204610BD2DE9F04126
:104D300017460E46050020D04FF0FF30B0FBF5F0CF
:104D4000B0421AD305FB06F010F1510F15D85030C0
:104D5000FFF724FC04000CD004F150005EB1206089
:104D6000C4E90F562046012100F010F8204684F8CF
:104D70004C70BDE8F0812460F2E7502080F3118888
:104D8000BFF34F8FBFF36F8FFEE700002DE9F041B7
:104D90000F4604004FF001062DD0E06B98B3B51E0E
:104DA000B5FBF0F1206C81423ED3FFF7BFFCD4E9A4
:104DB0000F20216802FB0011A1600021A16321687E
:104DC00061600A46D4E90F01401E00FB0121204624
:104DD000E16000F8445F457004F11000A7B1FFF7EF
:104DE00072FC04F12400FFF76EFC00BFFFF7BEFC6D
:104DF0003046BDE8F081502080F31188BFF34F8F1B
:104E0000BFF36F8FFEE70FE021690029EED000F0BD
:104E1000E5FB0028EAD008494FF080500860BFF356
:104E20004F8FBFF36F8FE1E7502080F31188BFF3FE
:104E30004F8FBFF36F8FFEE704ED00E02DE9FF47D2
:104E400082B01D468A464FF00008040003D0BAF134
:104E5000000F08D011E0502080F31188BFF34F8F6E
:104E6000BFF36F8FFEE7206C38B1502080F31188BC
:104E7000BFF34F8FBFF36F8FFEE7022D0AD1E06BB8
:104E8000012807D0502080F31188BFF34F8FBFF364
:104E90006F8FFEE700F03EFA3F4F4FF000094FF0F2
:104EA000805648B9049838B1502080F31188BFF378
:104EB0004F8FBFF36F8FFEE7FFF738FCA06BE16BFE
:104EC000884207D3022D05D00498D0B1B8F1000F65
:104ED0001AD01EE02A4651462046FFF7BEF8616A06
:104EE00019B104F1240000F079FB20B13E60BFF35A
:104EF0004F8FBFF36F8FFFF739FC012006B0BDE87D
:104F0000F087FFF733FC22E06846FFF74FFD4FF0D4
:104F10000108FFF72BFCFFF731FEFFF707FC94F9C0
:104F20004400401C01D184F8449094F94500401C91
:104F300001D184F84590FFF719FC04A9684600F0F8
:104F40007DF930B12046FFF7F3FA00F0B5FB002001
:104F5000D4E7FFF7EBFBA06BE16B884213D1FFF7BF
:104F600005FC04F110000499FFF72EFD2046FFF721
:104F7000DFFA00F0A1FB00289ED13E60BFF34F8F07
:104F8000BFF36F8F98E7FFF7F1FB2046FFF7D0FAEA
:104F900000F092FB90E7000004ED00E02DE9F747F8
:104FA000002683B08A46040003D0BAF1000F08D06F
:104FB00011E0502080F31188BFF34F8FBFF36F8F44
:104FC000FEE7206C38B1502080F31188BFF34F8F7B
:104FD000BFF36F8FFEE700F09DF9DFF8F4804FF02C
:104FE00000094FF0805748B9059838B1502080F338
:104FF0001188BFF34F8FBFF36F8FFEE7FFF796FB6C
:10500000A56BC5B151462046FFF714F86D1EA56388
:10501000206950B104F1100000F0E0FA28B1C8F89E
:105020000070BFF34F8FBFF36F8FFFF79FFB01201F
:1050300006B0BDE8F087059808B11EB106E0FFF79D
:1050400095FB27E06846FFF7B1FC0126FFF78EFBD2
:10505000FFF794FDFFF76AFB94F94400401C01D16F
:1050600084F8449094F94500401C01D184F845909F
:10507000FFF77CFB05A9684600F0E0F80028204611
:105080000AD0FFF755FA00F017FB2046FFF70EF99C
:105090000028B3D00020CBE7FFF708F990B104F166
:1050A00024000599FFF790FC2046FFF741FA00F035
:1050B00003FB0028A2D1C8F80070BFF34F8FBFF3E5
:1050C0006F8F9BE72046FFF733FA00F0F5FA95E77C
:1050D00004ED00E02DE9F343002683B004003546DB
:1050E00009D0206C78B1502080F31188BFF34F8F26
:1050F000BFF36F8FFEE7502080F31188BFF34F8F0F
:10510000BFF36F8FFEE700F005F9DFF82C814FF059
:1051100000094FF0805748B9049838B1502080F307
:105120001188BFF34F8FBFF36F8FFEE7FFF7FEFAD3
:10513000A06BC8B1401EA063206810B9FFF78EFABB
:10514000A060206950B104F1100000F047FA28B1C6
:10515000C8F80070BFF34F8FBFF36F8FFFF706FBE8
:10516000012005B0BDE8F083049808B11EB106E047
:10517000FFF7FCFA5EE06846FFF718FC0126FFF730
:10518000F5FAFFF7FBFCFFF7D1FA94F94400401C55
:1051900001D184F8449094F94500401C01D184F871
:1051A0004590FFF7E3FA04A9684600F047F80028A5
:1051B000204612D0FFF7BCF900F07EFA2046FFF738
:1051C00075F80028B2D075B3FFF7B0FA606A58B32B
:1051D000206B0068C0F1050128E0FFF767F8E0B137
:1051E000206838B9FFF7A2FAA06800F09FF90546D9
:1051F000FFF7BCFA04F124000499FFF7E5FB204611
:10520000FFF796F900F058FA00288FD1C8F800701F
:10521000BFF34F8FBFF36F8F88E72046FFF788F902
:1052200000F04AFA82E705E0FFE70021A068FFF7F7
:105230000BFC9DE7002094E704ED00E02DE9F04130
:105240000C46050014D0DCB1FFF770FA194EF26875
:105250006B682068D11A471C1AD02F68D6F820C076
:105260000026674516D0934214D8012526601BE01E
:10527000502080F31188BFF34F8FBFF36F8FFEE78D
:10528000502080F31188BFF34F8FBFF36F8FFEE77D
:10529000002509E0884205D9401A20602846FFF71A
:1052A00085FBF5E701252660FFF760FA2846BDE893
:1052B000F0810000140000202DE9FF5F8346DDE946
:1052C0000E87994616468A469000FFF767F9050053
:1052D0001DD05820FFF762F9040015D05821FBF7C4
:1052E0001BF825630021CDE90241CDE900874B463B
:1052F000324651465846FEF743FF2046FEF7FAFD78
:10530000012004B0BDE8F09F2846FFF743FA4FF0B4
:10531000FF30F6E70548416919B1406B18B100202C
:1053200070470120704702207047000014000020E1
:105330000148C06870470000140000202DE9F041CA
:105340004A4C0026606B28B1A069401CA061304621
:10535000BDE8F081E5686D1CE56013D1A06B0068C5
:1053600038B1502080F31188BFF34F8FBFF36F8F98
:10537000FEE7A06BE16BA163E063206A401C206242
:10538000FFF77EF8A16A3A488D420FD34FF0000E26
:10539000A16B096839B1A16BC968C9684A689542AF
:1053A00012D2A26202E04FF0FF31A1622168C96A05
:1053B00001EB810150F82100012800D90126E069A4
:1053C0000028C4D00126C2E7D1E902724B69BA6055
:1053D000D1E902277A605F680A1D974201D1CF6840
:1053E0005F60C1F814E01F687F1E1F60D1F828C0FD
:1053F000BCF1000F15D0D1E907379F60D1E907371D
:105400007B60DCF8047001F118039F4202D10B6A43
:10541000CCF80430C1F828E0DCF800305B1ECCF892
:105420000030CB6A0127D4F810C09F4047EA0C0730
:10543000276103EB830300EB83035B688B609F684A
:10544000CF609F687A609A60CA6A02EB820200EBC2
:1054500082034B6150F822305B1C40F82230C96A4D
:105460002268D26A914293D9012691E71400002064
:105470005806002070B504004FF000014FD0294DB0
:105480002868844207D0502080F31188BFF34F8FE3
:10549000BFF36F8FFEE7E06C38B1401EE064A36C91
:1054A000E26A9A423BD040B139E0502080F3118843
:1054B000BFF34F8FBFF36F8FFEE7201DFFF7F0F8AC
:1054C000012130B994F82C002A6901FA00F08243D6
:1054D0002A61A06CE062C0F10500A061E06A2A695F
:1054E000814011432961104900EB800001EB8000ED
:1054F0004068A0608268E2608368221D5A60826012
:10550000E06A00EB800001EB80006061E06A00EB84
:10551000800051F82020521C41F82020012108462B
:1055200070BD0000140000205806002070B5040073
:105530004FF0000047D0274DE16A2A68D26A9142B5
:1055400042D2A069002804DB2868C06AC0F10500C7
:10555000A061214E01EB8101606906EB8101884267
:105560002DD1201DFFF79CF8012130B994F82C00B3
:105570002A6901FA00F082432A612868C06AE06261
:105580002A6981401143296100EB800006EB80000D
:105590004068A0608168E1608268211D516081607F
:1055A000E06A00EB800006EB80006061E06A00EBDF
:1055B000800056F82010491C46F8201002E02868A8
:1055C000C06AE062012070BDA16C2A68D26A914273
:1055D000F8D370BD140000205806002070B5C068D4
:1055E000C06850B3D0E90732816A9A60D0E90723D6
:1055F0005A604A6800F118039A4201D1026A4A606F
:10560000002585620A68521E0A6029494A6B0124F6
:10561000DAB1284D6A68C26196680662966873605E
:10562000936085622A68521C2A60C06A0A68D26A3E
:1056300090423AD90120CC6170BD502080F311888E
:10564000BFF34F8FBFF36F8FFEE7D0E9026342696C
:10565000B360D0E9023673605668031D9E4201D1E3
:10566000C6685660456115686D1E1560C26A0E6990
:1056700004FA02F535430D610E4D02EB82028C3DBA
:1056800005EB8202526882609668C6609668736015
:105690009360C26A02EB820205EB8203436155F814
:1056A00022305B1C45F82230BFE7002070BD0000AF
:1056B00014000020E40600202DE9F041464D0024AE
:1056C0002746686B38B1FFF731F8686B401E686396
:1056D000686B40B17AE0502080F31188BFF34F8FA0
:1056E000BFF36F8FFEE7A8683C4B00264FF0010820
:1056F000F0BB6BE0D868C468D4E90721A06A916068
:10570000D4E907125160426804F118018A4201D1BC
:10571000216A4160A6620168491E0160D4E9022144
:1057200060699160D4E9021251604268211D8A4289
:1057300001D1E268426066610268521E0260E26A5C
:10574000D5F810C008FA02F040EA0C00286102EB1C
:105750008200224A8C3A02EB80004068A060D0F8B8
:1057600008C0C4F80CC0D0F808C0CCF8041000E0A1
:1057700012E08160E06A00EB800002EB8001616171
:1057800052F82010491C42F82010E06A2968C96AC2
:10579000884201D3C5F81C8018680028AAD10CB132
:1057A000FEF76EFEAC693CB1FFF7C8FD08B1C5F865
:1057B0001C80641EF8D1AE61E86938B10849012740
:1057C00038070860BFF34F8FBFF36F8FFEF7CEFF30
:1057D0003846BDE8F081000014000020E4060020F7
:1057E00004ED00E01CB5FEF7FDFB0D48006868B154
:1057F0000B490220091DCDE9000100234FF48272FC
:1058000008A10A48FFF758FD002807D1502080F36F
:105810001188BFF34F8FBFF36F8FFEE71CBD0000F1
:1058200054000020546D7220537663000D4500082B
:105830000000000000000000010203040607080940
:10584000000000000102030400000000000000004E
:105850000000000000000000000000F80000000050
:10586000000000333000000000160E00160E00008D
:10587000000000000000000040C07840C0784000F8
:10588000043F04043F040400007088FC083000005A
:10589000001820FF211E0000F008F000E0180000B2
:1058A00000211C031E211E0000F00888700000006B
:1058B0001E21232419272110000000160E000000CD
:1058C0000000000000000000000000E018040200DA
:1058D000000000071820400000020418E00000004B
:1058E0000040201807000000404080F08040400049
:1058F0000202010F01020200000000F0000000009F
:105900000101011F01010100000000000000000072
:1059100000B0700000000000000000000000000067
:105920000001010101010101000000000000000070
:10593000003030000000000000000000806018040B
:10594000006018060100000000E010080810E000E8
:10595000000F102020100F00001010F800000000B1
:105960000020203F202000000070080808887000F8
:105970000030282422213000003008888848300078
:105980000018202020110E000000C02010F8000098
:1059900000070424243F240000F808888808080031
:1059A0000019212020110E0000E010888818000046
:1059B000000F112020110E0000380808C838080018
:1059C0000000003F00000000007088080888700098
:1059D000001C222121221C0000E010080810E00019
:1059E0000000312222110F00000000C0C0000000A2
:1059F0000000003030000000000000C0C0000000C7
:105A0000000080B0700000000000804020100800FE
:105A10000001020408102000404040404040400087
:105A20000404040404040400000810204080000062
:105A30000020100804020100007048080808F00067
:105A40000000003036010000C030C828E810E00037
:105A50000718272423140B000000C038E0000000C2
:105A6000203C23020227382008F88888887000002C
:105A7000203F202020110E00C03008080808380000
:105A8000071820202010080008F808080810E00077
:105A9000203F202020100F0008F88888E808100018
:105AA000203F20202320180008F88888E8081000EC
:105AB000203F200003000000C03008080838000024
:105AC00007182020221E020008F808000008F80825
:105AD000203F210101213F20000808F808080000AC
